:04000000803119280A
:100008007E1480310B1F09280A2817282100911C0B
:100018000E280F2817282000911C132814281728A9
:100028008131022180317E10090080311B28F901BD
:10003800FA01FB01FC012000A001A101A201A3011A
:100048007E102000803128288131102180311D3018
:10005800F0000130F10081312E2180318B170B1710
:10006800200020087902F40021087A3BF5002208D4
:100078007B3BF60023087C3BF7007708031D5028DC
:100088007608031D50287508031D50280B3074028C
:10009800031C4F28502834287C082000A3007B0824
:1000A800A2007A08A1007908A00078308031B22037
:1000B8008031031022000F1D0314031864286728D9
:1000C80022000F15692822000F11F81D6C286D28D1
:1000D8006F288F1434288F10342880311928220073
:1000E80090018F018C018D018E0107302100900055
:1000F800F9308C00FF308D00FF308E00F9308F0012
:10010800F93023008F00FC308E003F308D0007301F
:10011800900032308C0024008F0190018D018C01F9
:100128008E0121009717250090018C018D018E0109
:100138008F01FF3026008C00FF308D00FF308E00CD
:10014800FF308F00073090003F3027008C00F030E0
:100158008D00FF308E00FF308F000800F300730819
:10016800860087018101FD30F000700822008C05AF
:10017800000022008C14F20120000C080139F00064
:10018800720AC728F035890BC6287008F100730871
:10019800860087017108810422000C150000FB30DD
:1001A800F000700822008C050130F0007008F2079A
:1001B80008307202031CE128E228C0287308860070
:1001C8008701730884008501000981000800043054
:1001D800290097009601980112309400930120009D
:1001E8009110210091143830F0000130F100813174
:1001F8002E218031C0302900950008002000911080
:1002080024082504031909290A290F2925088A0021
:1002180024080A008131080080317320813181313E
:10022800262181318131342181318031EB208131A6
:1002380008000130F9070030FA3D0030FB3D00307E
:10024800FC3D0800383021009B0080309C009A015A
:100258009D01080071082000A5007008A40008008E
:0A026800163021009900080008007C
:020000040001F9
:04000E00E73FFF3E8B
:00000001FF
