:08000000803102288731FD2F39
:100E9C007308F1007208F00008007A3021009B0002
:100EAC0080309C0040309D009A0108008731532708
:100EBC0087318731AB278731873166278731080027
:100ECC008B10210017170030F2000030F30087312F
:100EDC004E278731080087315C27873122000C149C
:100EEC00E830F2000330F300873189278731220084
:100EFC000C10E830F2000330F3008731892787317A
:100F0C00742F80310228922F2A30890B8B2F0032BC
:100F1C002030F2020030F33B003073022030031912
:100F2C00720203189A2F9B2F8A2F9E2F00320032A9
:100F3C000130F2020030F33B720A031DA92F730A31
:100F4C00031DA92FAA2F9C2F080022008C018D01B4
:100F5C008E018F019001FE3021008C00FF308D003E
:100F6C00FF308E00FF308F000F3090003E3023009A
:100F7C008C003F308D00FC308E00FF308F0007302E
:100F8C009000FF3024008C00FF308D00FF308E006D
:100F9C00FF308F000F3090002100971325008C013B
:100FAC008D018E018F019001FF3026008C00FF30E7
:100FBC008D00FF308E00FF308F0007309000FF3027
:100FCC0027008C00FF308D00FF308E00FF308F002B
:100FDC000F309000910192019301940195019601BB
:100FEC009701980199019D019E019F010800200025
:040FFC008731712F99
:020000040001F9
:04000E00E73FFF3E8B
:00000001FF
