:1000000080312628080008007E1480310B1E092844
:100010000A2812288B1C0D280E2812288731F42755
:10002000803124280B1F1528162824282100911C14
:100030001A281B2824282000911C1F282028242847
:1000400087317E27803124287E10090080312828BE
:100050002000EE01A0308400003085001730873189
:10006000DC2780317E10200082315D2A2000B00024
:100070008731E2278031033087318C27803120009F
:10008000300887310227803187318C2780318731D2
:10009000702780312000AF008F31F527803120009C
:1000A000AF1D5328542858282100A101A10A5A281D
:1000B0002100A10100302000B4000030B300003066
:1000C000B2000030B1008731E227803171289030D2
:1000D00087318C2780318228943087318C2780317A
:1000E000822820003008F500F6017608003A03194E
:1000F0007A2882287508003A03196728013A0319FB
:100100006C288228873170278031F500F601F701CD
:10011000F80178082000B9007708B8007608B70021
:100120007508B6003608F5003708F6003808F700FD
:100130003908F8000330F535F60DF70DF80D890B89
:100140009B287508B1047608B2047708B3047808D0
:10015000B404873170278031F500F601F701F8010A
:1001600078082000B9007708B8007608B70075084D
:10017000B6000730F5000030F6000030F700003020
:10018000F8003608F9003708FA003808FB0039088B
:10019000FC000530FC36FB0CFA0CF90C890BCA2864
:1001A0007908F5057A08F6057B08F7057C08F80557
:1001B0007508B1047608B2047708B3047808B4046B
:1001C000B61DE328E4285A292100A001A00A200036
:1001D0003108F5003208F6003308F7003408F8005B
:1001E0001230F535F60DF70DF80D890BF12878086A
:1001F000B4007708B3007608B2007508B100033088
:100200003605F50000303705F60000303805F700F8
:1002100000303905F8001030F535F60DF70DF80D02
:10022000890B0C297508B1047608B2047708B30469
:100230007808B404873170278031F500F601F701A2
:10024000F80178082000B9007708B8007608B700F0
:100250007508B6003608F5003708F6003808F700CC
:100260003908F8000830F535F60DF70DF80D890B53
:1002700033297508B1047608B2047708B304780806
:10028000B404873170278031F500F601F701F801D9
:1002900078082000B9007708B8007608B70075081C
:1002A000B6003608B1043708B2043808B304390878
:1002B000B40462292100A001873170278031873181
:1002C00070278031200034082100A5002000330869
:1002D0002100A400200032082100A30020003108E2
:1002E0002100A20021080319762977298A29A6016D
:1002F0008F31F5278031A030860000308700203014
:100300008400003085000F30F50016001A00F50B50
:100310008529A5298731702780312100A60020007A
:10032000B5013508A73E86008701873170278031E7
:1003300081000130F50075082000B507083035024E
:10034000031CA329A4299129782908000630890BC8
:10035000A729003204308531EE258131232ABF30B0
:10036000F5000730F6001F308631B1268131582A5A
:10037000BF30F5000730F6000F308631B1268131ED
:10038000582ABF30F5000730F60007308631B12615
:100390008131582ABF30F5000730F600033086312E
:1003A000B1268131582AB430F5000630F60003300A
:1003B0008631B1268131582ABF30F5000730F6006A
:1003C00001308631B1268131582AB430F50006302B
:1003D000F60001308631B1268131582AB130F5005E
:1003E0000530F60001308631B1268131582AB4300B
:1003F000F5000630F60000308631B1268131582AEA
:10040000B130F5000530F60000308631B12681317B
:10041000582A9030F5000230F60000308631B126BF
:100420008131582A8030F500F60100308631B1263E
:100430008131582AB130F5000530F600013086319F
:10044000B1268131582A7C08003A03192E2A013A34
:1004500003194E2A023A0319532A1A2A7B08053A2D
:100460000319AF290F3A0319B8291E3A0319C129F4
:100470003C3A0319CA291A3A0319D329623A0319D3
:10048000DC29343A0319E529193A0319EE29B53A5A
:100490000319F729323A0319002A1A2A7B08F43A79
:1004A0000319092A1A2A7B08E83A0319122A1A2A78
:1004B00000308531EE258131080087315D2782319A
:1004C0008B170B178631CD268231CA30F0000730EA
:1004D000F1008731E8278231F830F0000F30F10069
:1004E0008731EE2782310030F000F1000F30F2004A
:1004F0000030F3005D308631E8268231183020006C
:10050000E2000130E1008030E0008130DF00DD01F9
:10051000DD0ADE010830E300E401E501E601E70160
:10052000E801E901EA01EB0121002F083302200074
:10053000CA0021003008343B2000CB0021003108E4
:10054000353B2000CC0021003208363B2000CD0096
:100550004D08031DB72A4C08031DB72A4B08031D7D
:10056000B72A0B304A02031CB62AB72AD62A210022
:100570003608B2003508B1003408B0003308AF00C7
:1005800001302000CA004A08E4075D3086000030D0
:1005900087002B308400003085000F30CA00160021
:1005A0001A00CA0BCF2A8431AF2482314E308331F6
:1005B000FF238231003A0319DE2ADF2A942A03102E
:1005C00022000F1D03140318E62AE92A22000F1542
:1005D000EB2A22000F11483020005006031DF82A94
:1005E0005103C730031952065304031DF82AF92A90
:1005F000942A20005608E5005708E6005808E7004E
:100600005908E8005A08E9005B08EA005C08EB00BA
:10061000942A803126282000AA002A0886315926EB
:100620008331003A0319152B162B9E2B8731E227B5
:100630008331023087318C27833120002A088631AC
:100640009426833187318C27833178082000A000DD
:100650007908A1007A08A2007B08A3001530A33610
:10066000A20CA10CA00C890B2F2B200887318C2702
:10067000833178082000A0007908A1007A08A20040
:100680007B08A3001030A336A20CA10CA00C890B90
:10069000432B03302005A4007808A5007908A600A4
:1006A0007A08A7007B08A8000D30A836A70CA60C76
:1006B000A50C890B552B2508E0392404083887310F
:1006C0008C27833178082000A0007908A1007A08DF
:1006D000A2007B08A3000830A336A20CA10CA00C3A
:1006E000890B6C2B200887318C2783317808873160
:1006F0008C2783317C0887318C2783312000A90126
:10070000902B29087D07A00020088600870101089A
:1007100087318C27833101302000A0002008A907F1
:100720007C082902031C952B962B812B8F31F527F2
:10073000833120002A088531C32583310800200039
:10074000A1002108863159268331003A0319A92BCB
:10075000AA2BFE2B8731E2278331023087318C2789
:1007600083312000210886319426833187318C27FC
:1007700083317908FD007808FC00FD36FC0CFD365D
:10078000FC0CFD36FC0C7C0887318C278331780803
:10079000FC000430FC35FF3E031DCA2B7C3587313D
:1007A0008C278331003087318C27833100308731AB
:1007B0008C2783317A0887318C2783312000A00170
:1007C000F02B20087B07FC007C08860087010108CD
:1007D00087318C2783310130FC007C082000A00782
:1007E0007A082002031CF52BF62BE12B8F31F5271D
:1007F0008331200021088531C32583310800200082
:10080000C900003085314C258331003A0319092C89
:100810000A2C2E2C003080313620833120002030ED
:100820008600003087003A308400003085000F30A9
:10083000FD0016001A00FD0B192C0030853194259F
:1008400083313A30F0000F30F1000030F200200028
:10085000490886311526833101305B2C0130853102
:100860004C258331003A0319362C372C5A2C013091
:100870008031362083312000203086000030870010
:100880003A308400003085000F30FD0016001A0059
:10089000FD0B462C01308531942583313A30F00030
:1008A0000F30F1000030F200200049088631152693
:1008B00083312C2C00300800F3002400951A612CA1
:1008C000622CAE2C7308F000F101F035F10DF0351B
:1008D000F10DFA30700784000730713D80388500D3
:1008E000000894007308F000F101F035F10DF035C7
:1008F000F10DF930700784000730713D80388500B4
:100900000008950096017308F000F101F035F10D33
:10091000F035F10DFB30700784000730713D8038F1
:100920008500000892007308F000F101F035F10D28
:10093000F035F10DFC30700784000730713D8038D0
:1009400085000008F200F20DF20DF20D21000E08F4
:100950007206F73972068E002400951608000030E2
:10096000863159268431003A0319B72CB82CBB2C98
:100970002000BA01D42C0130863159268431003A46
:100980000319C32CC42CC82C2000BA01BA0AD42CD9
:100990000230863159268431003A0319D02CD12CEB
:1009A000FF2C02302000BA002B03031DD82CD92CB9
:1009B000EE2C02302B3E86008701403FF800413F7D
:1009C000F900423FFA00433FFB003108FC0032309F
:1009D000FD003A0883310B238431FF2C2B08031DC3
:1009E000F22CF32CFF2C2E08F9002D08F80031080A
:1009F000FA003230FB003A0883319F23843108002B
:100A0000220090018F018C018D018E0107302100A1
:100A10009000FF308C00FF308D00D3308E00FB3013
:100A20008F00FB3023008F00C0308E003E308D00E1
:100A3000073090003F308C0024008F0190018D0121
:100A40008C018E0121009717250090018C018D01EA
:100A50008E018F01FF3026008C00FF308D00FF30AB
:100A60008E00FF308F00073090003F3027008C0051
:100A7000F0308D00FF308E00FF308F0008303C00DA
:100A80008D001430BB0021303D00A3002330A500B1
:100A900013303C00BA000800F700F8018731E22764
:100AA0008531B03087318C2785318731702785318A
:100AB000F9007908F5000630F536890B5C2D7508CC
:100AC000F9008F31F5278531822D79030319692DBE
:100AD0006A2D702D03307906031D6F2D702D732D37
:100AE000F801F80A922DF801922D023079060319C7
:100AF0007A2D7B2D702D03307906031D802D812DDD
:100B0000732D702D7708F500F6017608003A031969
:100B10008A2D922D7508003A0319652D013A0319A3
:100B2000752D922D78080800F7008731E22785316E
:100B3000053087318C2785312C3087318C278531E2
:100B4000AB2D013087318C278531BB2D02308731A9
:100B50008C278531BB2D7708F500F6017608003A21
:100B60000319B32DBB2D7508003A0319A12D013AC5
:100B70000319A62DBB2D003087318C2785318F318D
:100B8000F52785310800F7008731E2278531D72D19
:100B9000813087318C278531EA2D823087318C274F
:100BA0008531EA2D843087318C278531EA2D77080D
:100BB000F500F6017608003A0319DF2DEA2D7508D5
:100BC000003A0319C82D013A0319CD2D033A031930
:100BD000D22DEA2D8F31F52785310800F8008731B5
:100BE000E2278531053087318C278531FF30873109
:100BF0008C278531E03087318C2785317808F700E4
:100C00000430F735FF3E031D012E773587318C27E1
:100C100085318F31F527853186313A268531780641
:100C2000031D132E142E0C2E0800F7007008F6007A
:100C30007708F5002D2E7608860087010108F4005C
:100C40000130F3007308F607750886008701740801
:100C500081000130F3007308F5070130F102003024
:100C6000F23B710A031D382E720A031D382E392EED
:100C70001B2E08008731E2278631033087318C270D
:100C80008631FE3087318C27863187317027863157
:100C9000F6007608F5000530F536890B4C2E750800
:100CA000F60076080739F6008F31F5278631760889
:100CB0000800F5008731E2278631033087318C2721
:100CC0008631750886317726863187318C278631C3
:100CD000873170278631F6008F31F5278631F61D72
:100CE000722E732E752E0030762E01300800F20021
:100CF0007F2E3030932E4030932E5030932E72083A
:100D0000F000F1017108003A0319872E922E700845
:100D1000003A0319792E013A03197B2E033A03197D
:100D20007D2E922E00300800F2009C2E3130B02E25
:100D30004130B02E5130B02E7208F000F101710830
:100D4000003A0319A42EAF2E7008003A0319962E0C
:100D5000013A0319982E033A03199A2EAF2E003048
:100D60000800F7008731E2278631023087318C276F
:100D70008631283087318C278631760887318C2759
:100D80008631750887318C278631770887318C2723
:100D900086318F31F527863108008731BF278631AC
:100DA0002130FD007630890BD32EFD0BD32E00327F
:100DB00020002108FA002008F900FA30FB0000307A
:100DC000FC008131A621863187311A27863108003F
:100DD000F5007508F600F52E760886008701700884
:100DE00081000130F4007408F6070130F20200308F
:100DF000F33B720A031D002F730A031D002F012FFE
:100E0000EC2E0800F200082F6030192F7030192FD7
:100E10007208F000F1017108003A0319102F182F21
:100E20007008003A0319042F013A0319062F182FEE
:100E3000003008008731E2278731053087318C2761
:100E400087312B3087318C278731033087318C27CE
:100E50008731033087318C2787318F31F5278731F0
:100E6000080004302900970096019801263094006C
:100E7000930120009110210091140330F000003004
:100E8000F1008731E8278731C0302900950008003C
:100E900013303C00BA001430BB0021303D00A300E9
:100EA0002330A500403024009400950109309200C1
:100EB00021008E11240095120800873148278731C0
:100EC0008531002587318731D42787318F31FC2741
:100ED00087318731312787318731B3278731080040
:100EE000003084315C248731003087319927873185
:100EF000F4008731FD278731740808002000911025
:100F00006C086D040319852F862F8B2F6D088A00BE
:100F10006C080A0087310800F400003084315C243A
:100F2000873174088731992787318731FD278731C9
:100F30000800F0007008240091002000911DA12FEE
:100F4000A22F9D2F911124001108080021003708BD
:100F500038040319AC2FAD2FB22F38088A00370898
:100F60000A00873108008B10210017170230F000AB
:100F70000030F1008731EE2787310B1608008731EA
:100F8000E2278731C03087318C2787318F31F527B1
:100F90008731080001302100B3070030B43D003034
:100FA000B53D0030B63D0800783021009B00803010
:100FB0009C009A019D010800640080010131890BA9
:100FC000DD2F0034FB30F000700822008E05080091
:100FD00071082000ED007008EC0008007108210085
:100FE000B8007008B70008008B108731A62787313A
:100FF00008000034403409340034240095120800FD
:101FEA0022000E15080001302000EE00080016300D
:061FFA002100990008001F
:020000040001F9
:04000E00E73FFF3E8B
:00000001FF
