:08000000803102288731F32F43
:100DBC00080023001D121D1608007A0823009A0053
:100DCC0008002000110E890C013908007B08F9007D
:100DDC007A08F80008007A3021009B0080309C00D3
:100DEC009D019A0108007A087B040319FE2EFF2E40
:100DFC00032F7B08F5007A08F40008007A087B04BE
:100E0C000319092F0A2F0E2F7B08F3007A08F20022
:100E1C0008008B10210017170030FA000030FB007F
:100E2C008631EC26873108008631F12687318731EF
:100E3C009D27873187313627873187310F278731B7
:100E4C000800FA012000111E2C2F2D2F342F230007
:100E5C009E1E312F322F342FFA01FA0A7A0808001D
:100E6C00483023009F0090309D0026309E00A0301B
:100E7C009B0001309C00DE30FA000630FB0086310E
:100E8C00F9268731DF30FA000630FB008731042762
:100E9C008731F601F701080087311A27873186312F
:100EAC00E7268731003A03195C2F5D2F662F8731B7
:100EBC0076278731FC00FD017C08F0007D08F100ED
:100ECC00873127278731003A03196D2F6E2F552F45
:100EDC007008FA008631E3268731552F80310228BD
:100EEC00F601F70123009D1C7C2F7D2F892F761591
:100EFC00720873040319832F842F892F73088A00B7
:100F0C0072080A00873123001D1D8D2F8E2F9A2FFA
:100F1C00F614740875040319942F952F9A2F7508DD
:100F2C008A0074080A00873123001908080022007F
:100F3C008C018D018E018F019001FF3021008C00FE
:100F4C00FF308D00FF308E00FF308F000F3090008F
:100F5C003F3023008C003F308D007C308E00FF3002
:100F6C008F0007309000FF3024008C00FF308D0084
:100F7C00FF308E00FF308F000F3090002100971350
:100F8C0025008C018D018E018F019001FF30260010
:100F9C008C00FF308D00FF308E00FF308F0007304B
:100FAC009000FF3027008C00FF308D00FF308E004A
:100FBC00FF308F000F30900017303C00BD00270031
:100FCC009101920193019401950196019701980169
:100FDC0099019D019E019F010800F001F101F201B0
:100FEC00F301F401F501F601F701F801F901200014
:100FFC008731522F363407340034003476340734BA
:10100C00E3340634E7340634273407340034003430
:10101C000034003400340034003400340034003424
:10102C000034003400340034003400340034003414
:10103C000034003400340034003400340034003404
:10104C0000340034F93406340434073400340034EA
:04105C000034003428
:020000040001F9
:04000E00E73FFF3E8B
:00000001FF
